{
  "_format": "hh-sol-artifact-1",
  "contractName": "CustomERC20",
  "sourceName": "contracts/Erc20.sol",
  "abi": [
    {
      "inputs": [
        {
          "internalType": "string",
          "name": "_name",
          "type": "string"
        },
        {
          "internalType": "string",
          "name": "_symbol",
          "type": "string"
        },
        {
          "internalType": "uint8",
          "name": "_decimals",
          "type": "uint8"
        },
        {
          "internalType": "uint256",
          "name": "initialSupply",
          "type": "uint256"
        }
      ],
      "stateMutability": "nonpayable",
      "type": "constructor"
    },
    {
      "anonymous": false,
      "inputs": [
        {
          "indexed": true,
          "internalType": "address",
          "name": "owner",
          "type": "address"
        },
        {
          "indexed": true,
          "internalType": "address",
          "name": "spender",
          "type": "address"
        },
        {
          "indexed": false,
          "internalType": "uint256",
          "name": "value",
          "type": "uint256"
        }
      ],
      "name": "Approval",
      "type": "event"
    },
    {
      "anonymous": false,
      "inputs": [
        {
          "indexed": true,
          "internalType": "address",
          "name": "from",
          "type": "address"
        },
        {
          "indexed": true,
          "internalType": "address",
          "name": "to",
          "type": "address"
        },
        {
          "indexed": false,
          "internalType": "uint256",
          "name": "value",
          "type": "uint256"
        }
      ],
      "name": "Transfer",
      "type": "event"
    },
    {
      "inputs": [
        {
          "internalType": "address",
          "name": "",
          "type": "address"
        },
        {
          "internalType": "address",
          "name": "",
          "type": "address"
        }
      ],
      "name": "allowance",
      "outputs": [
        {
          "internalType": "uint256",
          "name": "",
          "type": "uint256"
        }
      ],
      "stateMutability": "view",
      "type": "function"
    },
    {
      "inputs": [
        {
          "internalType": "address",
          "name": "spender",
          "type": "address"
        },
        {
          "internalType": "uint256",
          "name": "amount",
          "type": "uint256"
        }
      ],
      "name": "approve",
      "outputs": [
        {
          "internalType": "bool",
          "name": "",
          "type": "bool"
        }
      ],
      "stateMutability": "nonpayable",
      "type": "function"
    },
    {
      "inputs": [
        {
          "internalType": "address",
          "name": "",
          "type": "address"
        }
      ],
      "name": "balanceOf",
      "outputs": [
        {
          "internalType": "uint256",
          "name": "",
          "type": "uint256"
        }
      ],
      "stateMutability": "view",
      "type": "function"
    },
    {
      "inputs": [
        {
          "internalType": "uint256",
          "name": "amount",
          "type": "uint256"
        }
      ],
      "name": "burn",
      "outputs": [
        {
          "internalType": "bool",
          "name": "",
          "type": "bool"
        }
      ],
      "stateMutability": "nonpayable",
      "type": "function"
    },
    {
      "inputs": [],
      "name": "decimals",
      "outputs": [
        {
          "internalType": "uint8",
          "name": "",
          "type": "uint8"
        }
      ],
      "stateMutability": "view",
      "type": "function"
    },
    {
      "inputs": [
        {
          "internalType": "address",
          "name": "spender",
          "type": "address"
        },
        {
          "internalType": "uint256",
          "name": "subtractedValue",
          "type": "uint256"
        }
      ],
      "name": "decreaseAllowance",
      "outputs": [
        {
          "internalType": "bool",
          "name": "",
          "type": "bool"
        }
      ],
      "stateMutability": "nonpayable",
      "type": "function"
    },
    {
      "inputs": [
        {
          "internalType": "address",
          "name": "spender",
          "type": "address"
        },
        {
          "internalType": "uint256",
          "name": "addedValue",
          "type": "uint256"
        }
      ],
      "name": "increaseAllowance",
      "outputs": [
        {
          "internalType": "bool",
          "name": "",
          "type": "bool"
        }
      ],
      "stateMutability": "nonpayable",
      "type": "function"
    },
    {
      "inputs": [
        {
          "internalType": "address",
          "name": "to",
          "type": "address"
        },
        {
          "internalType": "uint256",
          "name": "amount",
          "type": "uint256"
        }
      ],
      "name": "mint",
      "outputs": [
        {
          "internalType": "bool",
          "name": "",
          "type": "bool"
        }
      ],
      "stateMutability": "nonpayable",
      "type": "function"
    },
    {
      "inputs": [],
      "name": "name",
      "outputs": [
        {
          "internalType": "string",
          "name": "",
          "type": "string"
        }
      ],
      "stateMutability": "view",
      "type": "function"
    },
    {
      "inputs": [],
      "name": "symbol",
      "outputs": [
        {
          "internalType": "string",
          "name": "",
          "type": "string"
        }
      ],
      "stateMutability": "view",
      "type": "function"
    },
    {
      "inputs": [],
      "name": "totalSupply",
      "outputs": [
        {
          "internalType": "uint256",
          "name": "",
          "type": "uint256"
        }
      ],
      "stateMutability": "view",
      "type": "function"
    },
    {
      "inputs": [
        {
          "internalType": "address",
          "name": "to",
          "type": "address"
        },
        {
          "internalType": "uint256",
          "name": "amount",
          "type": "uint256"
        }
      ],
      "name": "transfer",
      "outputs": [
        {
          "internalType": "bool",
          "name": "",
          "type": "bool"
        }
      ],
      "stateMutability": "nonpayable",
      "type": "function"
    },
    {
      "inputs": [
        {
          "internalType": "address",
          "name": "from",
          "type": "address"
        },
        {
          "internalType": "address",
          "name": "to",
          "type": "address"
        },
        {
          "internalType": "uint256",
          "name": "amount",
          "type": "uint256"
        }
      ],
      "name": "transferFrom",
      "outputs": [
        {
          "internalType": "bool",
          "name": "",
          "type": "bool"
        }
      ],
      "stateMutability": "nonpayable",
      "type": "function"
    }
  ],
  "bytecode": "0x608060405234801561001057600080fd5b506040516122ee3803806122ee83398181016040528101906100329190610335565b836000908161004191906105eb565b50826001908161005191906105eb565b5081600260006101000a81548160ff021916908360ff160217905550600260009054906101000a900460ff16600a610089919061081f565b81610094919061086a565b600381905550600354600460003373ffffffffffffffffffffffffffffffffffffffff1673ffffffffffffffffffffffffffffffffffffffff168152602001908152602001600020819055503373ffffffffffffffffffffffffffffffffffffffff16600073ffffffffffffffffffffffffffffffffffffffff167fddf252ad1be2c89b69c2b068fc378daa952ba7f163c4a11628f55a4df523b3ef60035460405161014091906108bb565b60405180910390a3505050506108d6565b6000604051905090565b600080fd5b600080fd5b600080fd5b600080fd5b6000601f19601f8301169050919050565b7f4e487b7100000000000000000000000000000000000000000000000000000000600052604160045260246000fd5b6101b88261016f565b810181811067ffffffffffffffff821117156101d7576101d6610180565b5b80604052505050565b60006101ea610151565b90506101f682826101af565b919050565b600067ffffffffffffffff82111561021657610215610180565b5b61021f8261016f565b9050602081019050919050565b60005b8381101561024a57808201518184015260208101905061022f565b60008484015250505050565b6000610269610264846101fb565b6101e0565b9050828152602081018484840111156102855761028461016a565b5b61029084828561022c565b509392505050565b600082601f8301126102ad576102ac610165565b5b81516102bd848260208601610256565b91505092915050565b600060ff82169050919050565b6102dc816102c6565b81146102e757600080fd5b50565b6000815190506102f9816102d3565b92915050565b6000819050919050565b610312816102ff565b811461031d57600080fd5b50565b60008151905061032f81610309565b92915050565b6000806000806080858703121561034f5761034e61015b565b5b600085015167ffffffffffffffff81111561036d5761036c610160565b5b61037987828801610298565b945050602085015167ffffffffffffffff81111561039a57610399610160565b5b6103a687828801610298565b93505060406103b7878288016102ea565b92505060606103c887828801610320565b91505092959194509250565b600081519050919050565b7f4e487b7100000000000000000000000000000000000000000000000000000000600052602260045260246000fd5b6000600282049050600182168061042657607f821691505b602082108103610439576104386103df565b5b50919050565b60008190508160005260206000209050919050565b60006020601f8301049050919050565b600082821b905092915050565b6000600883026104a17fffffffffffffffffffffffffffffffffffffffffffffffffffffffffffffffff82610464565b6104ab8683610464565b95508019841693508086168417925050509392505050565b6000819050919050565b60006104e86104e36104de846102ff565b6104c3565b6102ff565b9050919050565b6000819050919050565b610502836104cd565b61051661050e826104ef565b848454610471565b825550505050565b600090565b61052b61051e565b6105368184846104f9565b505050565b5b8181101561055a5761054f600082610523565b60018101905061053c565b5050565b601f82111561059f576105708161043f565b61057984610454565b81016020851015610588578190505b61059c61059485610454565b83018261053b565b50505b505050565b600082821c905092915050565b60006105c2600019846008026105a4565b1980831691505092915050565b60006105db83836105b1565b9150826002028217905092915050565b6105f4826103d4565b67ffffffffffffffff81111561060d5761060c610180565b5b610617825461040e565b61062282828561055e565b600060209050601f8311600181146106555760008415610643578287015190505b61064d85826105cf565b8655506106b5565b601f1984166106638661043f565b60005b8281101561068b57848901518255600182019150602085019450602081019050610666565b868310156106a857848901516106a4601f8916826105b1565b8355505b6001600288020188555050505b505050505050565b7f4e487b7100000000000000000000000000000000000000000000000000000000600052601160045260246000fd5b60008160011c9050919050565b6000808291508390505b60018511156107435780860481111561071f5761071e6106bd565b5b600185161561072e5780820291505b808102905061073c856106ec565b9450610703565b94509492505050565b60008261075c5760019050610818565b8161076a5760009050610818565b8160018114610780576002811461078a576107b9565b6001915050610818565b60ff84111561079c5761079b6106bd565b5b8360020a9150848211156107b3576107b26106bd565b5b50610818565b5060208310610133831016604e8410600b84101617156107ee5782820a9050838111156107e9576107e86106bd565b5b610818565b6107fb84848460016106f9565b92509050818404811115610812576108116106bd565b5b81810290505b9392505050565b600061082a826102ff565b9150610835836102c6565b92506108627fffffffffffffffffffffffffffffffffffffffffffffffffffffffffffffffff848461074c565b905092915050565b6000610875826102ff565b9150610880836102ff565b925082820261088e816102ff565b915082820484148315176108a5576108a46106bd565b5b5092915050565b6108b5816102ff565b82525050565b60006020820190506108d060008301846108ac565b92915050565b611a09806108e56000396000f3fe608060405234801561001057600080fd5b50600436106100cf5760003560e01c806340c10f191161008c57806395d89b411161006657806395d89b411461024e578063a457c2d71461026c578063a9059cbb1461029c578063dd62ed3e146102cc576100cf565b806340c10f19146101be57806342966c68146101ee57806370a082311461021e576100cf565b806306fdde03146100d4578063095ea7b3146100f257806318160ddd1461012257806323b872dd14610140578063313ce56714610170578063395093511461018e575b600080fd5b6100dc6102fc565b6040516100e99190611322565b60405180910390f35b61010c600480360381019061010791906113dd565b61038a565b6040516101199190611438565b60405180910390f35b61012a6104ea565b6040516101379190611462565b60405180910390f35b61015a6004803603810190610155919061147d565b6104f0565b6040516101679190611438565b60405180910390f35b6101786108a4565b60405161018591906114ec565b60405180910390f35b6101a860048036038101906101a391906113dd565b6108b7565b6040516101b59190611438565b60405180910390f35b6101d860048036038101906101d391906113dd565b610a9c565b6040516101e59190611438565b60405180910390f35b61020860048036038101906102039190611507565b610bd9565b6040516102159190611438565b60405180910390f35b61023860048036038101906102339190611534565b610d29565b6040516102459190611462565b60405180910390f35b610256610d41565b6040516102639190611322565b60405180910390f35b610286600480360381019061028191906113dd565b610dcf565b6040516102939190611438565b60405180910390f35b6102b660048036038101906102b191906113dd565b611072565b6040516102c39190611438565b60405180910390f35b6102e660048036038101906102e19190611561565b61126d565b6040516102f39190611462565b60405180910390f35b60008054610309906115d0565b80601f0160208091040260200160405190810160405280929190818152602001828054610335906115d0565b80156103825780601f1061035757610100808354040283529160200191610382565b820191906000526020600020905b81548152906001019060200180831161036557829003601f168201915b505050505081565b60008073ffffffffffffffffffffffffffffffffffffffff168373ffffffffffffffffffffffffffffffffffffffff16036103fa576040517f08c379a00000000000000000000000000000000000000000000000000000000081526004016103f19061164d565b60405180910390fd5b81600560003373ffffffffffffffffffffffffffffffffffffffff1673ffffffffffffffffffffffffffffffffffffffff16815260200190815260200160002060008573ffffffffffffffffffffffffffffffffffffffff1673ffffffffffffffffffffffffffffffffffffffff168152602001908152602001600020819055508273ffffffffffffffffffffffffffffffffffffffff163373ffffffffffffffffffffffffffffffffffffffff167f8c5be1e5ebec7d5bd14f71427d1e84f3dd0314c0f7b2291e5b200ac8c7c3b925846040516104d89190611462565b60405180910390a36001905092915050565b60035481565b60008073ffffffffffffffffffffffffffffffffffffffff168473ffffffffffffffffffffffffffffffffffffffff1603610560576040517f08c379a0000000000000000000000000000000000000000000000000000000008152600401610557906116df565b60405180910390fd5b600073ffffffffffffffffffffffffffffffffffffffff168373ffffffffffffffffffffffffffffffffffffffff16036105cf576040517f08c379a00000000000000000000000000000000000000000000000000000000081526004016105c69061174b565b60405180910390fd5b81600460008673ffffffffffffffffffffffffffffffffffffffff1673ffffffffffffffffffffffffffffffffffffffff168152602001908152602001600020541015610651576040517f08c379a0000000000000000000000000000000000000000000000000000000008152600401610648906117b7565b60405180910390fd5b81600560008673ffffffffffffffffffffffffffffffffffffffff1673ffffffffffffffffffffffffffffffffffffffff16815260200190815260200160002060003373ffffffffffffffffffffffffffffffffffffffff1673ffffffffffffffffffffffffffffffffffffffff168152602001908152602001600020541015610710576040517f08c379a000000000000000000000000000000000000000000000000000000000815260040161070790611823565b60405180910390fd5b81600560008673ffffffffffffffffffffffffffffffffffffffff1673ffffffffffffffffffffffffffffffffffffffff16815260200190815260200160002060003373ffffffffffffffffffffffffffffffffffffffff1673ffffffffffffffffffffffffffffffffffffffff1681526020019081526020016000206000828254039250508190555081600460008673ffffffffffffffffffffffffffffffffffffffff1673ffffffffffffffffffffffffffffffffffffffff1681526020019081526020016000206000828254039250508190555081600460008573ffffffffffffffffffffffffffffffffffffffff1673ffffffffffffffffffffffffffffffffffffffff168152602001908152602001600020600082825401925050819055508273ffffffffffffffffffffffffffffffffffffffff168473ffffffffffffffffffffffffffffffffffffffff167fddf252ad1be2c89b69c2b068fc378daa952ba7f163c4a11628f55a4df523b3ef846040516108919190611462565b60405180910390a3600190509392505050565b600260009054906101000a900460ff1681565b60008073ffffffffffffffffffffffffffffffffffffffff168373ffffffffffffffffffffffffffffffffffffffff1603610927576040517f08c379a000000000000000000000000000000000000000000000000000000000815260040161091e9061164d565b60405180910390fd5b81600560003373ffffffffffffffffffffffffffffffffffffffff1673ffffffffffffffffffffffffffffffffffffffff16815260200190815260200160002060008573ffffffffffffffffffffffffffffffffffffffff1673ffffffffffffffffffffffffffffffffffffffff168152602001908152602001600020600082825401925050819055508273ffffffffffffffffffffffffffffffffffffffff163373ffffffffffffffffffffffffffffffffffffffff167f8c5be1e5ebec7d5bd14f71427d1e84f3dd0314c0f7b2291e5b200ac8c7c3b925600560003373ffffffffffffffffffffffffffffffffffffffff1673ffffffffffffffffffffffffffffffffffffffff16815260200190815260200160002060008773ffffffffffffffffffffffffffffffffffffffff1673ffffffffffffffffffffffffffffffffffffffff16815260200190815260200160002054604051610a8a9190611462565b60405180910390a36001905092915050565b60008073ffffffffffffffffffffffffffffffffffffffff168373ffffffffffffffffffffffffffffffffffffffff1603610b0c576040517f08c379a0000000000000000000000000000000000000000000000000000000008152600401610b039061188f565b60405180910390fd5b8160036000828254019250508190555081600460008573ffffffffffffffffffffffffffffffffffffffff1673ffffffffffffffffffffffffffffffffffffffff168152602001908152602001600020600082825401925050819055508273ffffffffffffffffffffffffffffffffffffffff16600073ffffffffffffffffffffffffffffffffffffffff167fddf252ad1be2c89b69c2b068fc378daa952ba7f163c4a11628f55a4df523b3ef84604051610bc79190611462565b60405180910390a36001905092915050565b600081600460003373ffffffffffffffffffffffffffffffffffffffff1673ffffffffffffffffffffffffffffffffffffffff168152602001908152602001600020541015610c5d576040517f08c379a0000000000000000000000000000000000000000000000000000000008152600401610c5490611921565b60405180910390fd5b81600460003373ffffffffffffffffffffffffffffffffffffffff1673ffffffffffffffffffffffffffffffffffffffff1681526020019081526020016000206000828254039250508190555081600360008282540392505081905550600073ffffffffffffffffffffffffffffffffffffffff163373ffffffffffffffffffffffffffffffffffffffff167fddf252ad1be2c89b69c2b068fc378daa952ba7f163c4a11628f55a4df523b3ef84604051610d189190611462565b60405180910390a360019050919050565b60046020528060005260406000206000915090505481565b60018054610d4e906115d0565b80601f0160208091040260200160405190810160405280929190818152602001828054610d7a906115d0565b8015610dc75780601f10610d9c57610100808354040283529160200191610dc7565b820191906000526020600020905b815481529060010190602001808311610daa57829003601f168201915b505050505081565b60008073ffffffffffffffffffffffffffffffffffffffff168373ffffffffffffffffffffffffffffffffffffffff1603610e3f576040517f08c379a0000000000000000000000000000000000000000000000000000000008152600401610e369061164d565b60405180910390fd5b6000600560003373ffffffffffffffffffffffffffffffffffffffff1673ffffffffffffffffffffffffffffffffffffffff16815260200190815260200160002060008573ffffffffffffffffffffffffffffffffffffffff1673ffffffffffffffffffffffffffffffffffffffff16815260200190815260200160002054905082811015610f03576040517f08c379a0000000000000000000000000000000000000000000000000000000008152600401610efa906119b3565b60405180910390fd5b828103600560003373ffffffffffffffffffffffffffffffffffffffff1673ffffffffffffffffffffffffffffffffffffffff16815260200190815260200160002060008673ffffffffffffffffffffffffffffffffffffffff1673ffffffffffffffffffffffffffffffffffffffff168152602001908152602001600020819055508373ffffffffffffffffffffffffffffffffffffffff163373ffffffffffffffffffffffffffffffffffffffff167f8c5be1e5ebec7d5bd14f71427d1e84f3dd0314c0f7b2291e5b200ac8c7c3b925600560003373ffffffffffffffffffffffffffffffffffffffff1673ffffffffffffffffffffffffffffffffffffffff16815260200190815260200160002060008873ffffffffffffffffffffffffffffffffffffffff1673ffffffffffffffffffffffffffffffffffffffff1681526020019081526020016000205460405161105f9190611462565b60405180910390a3600191505092915050565b60008073ffffffffffffffffffffffffffffffffffffffff168373ffffffffffffffffffffffffffffffffffffffff16036110e2576040517f08c379a00000000000000000000000000000000000000000000000000000000081526004016110d99061174b565b60405180910390fd5b81600460003373ffffffffffffffffffffffffffffffffffffffff1673ffffffffffffffffffffffffffffffffffffffff168152602001908152602001600020541015611164576040517f08c379a000000000000000000000000000000000000000000000000000000000815260040161115b906117b7565b60405180910390fd5b81600460003373ffffffffffffffffffffffffffffffffffffffff1673ffffffffffffffffffffffffffffffffffffffff1681526020019081526020016000206000828254039250508190555081600460008573ffffffffffffffffffffffffffffffffffffffff1673ffffffffffffffffffffffffffffffffffffffff168152602001908152602001600020600082825401925050819055508273ffffffffffffffffffffffffffffffffffffffff163373ffffffffffffffffffffffffffffffffffffffff167fddf252ad1be2c89b69c2b068fc378daa952ba7f163c4a11628f55a4df523b3ef8460405161125b9190611462565b60405180910390a36001905092915050565b6005602052816000526040600020602052806000526040600020600091509150505481565b600081519050919050565b600082825260208201905092915050565b60005b838110156112cc5780820151818401526020810190506112b1565b60008484015250505050565b6000601f19601f8301169050919050565b60006112f482611292565b6112fe818561129d565b935061130e8185602086016112ae565b611317816112d8565b840191505092915050565b6000602082019050818103600083015261133c81846112e9565b905092915050565b600080fd5b600073ffffffffffffffffffffffffffffffffffffffff82169050919050565b600061137482611349565b9050919050565b61138481611369565b811461138f57600080fd5b50565b6000813590506113a18161137b565b92915050565b6000819050919050565b6113ba816113a7565b81146113c557600080fd5b50565b6000813590506113d7816113b1565b92915050565b600080604083850312156113f4576113f3611344565b5b600061140285828601611392565b9250506020611413858286016113c8565b9150509250929050565b60008115159050919050565b6114328161141d565b82525050565b600060208201905061144d6000830184611429565b92915050565b61145c816113a7565b82525050565b60006020820190506114776000830184611453565b92915050565b60008060006060848603121561149657611495611344565b5b60006114a486828701611392565b93505060206114b586828701611392565b92505060406114c6868287016113c8565b9150509250925092565b600060ff82169050919050565b6114e6816114d0565b82525050565b600060208201905061150160008301846114dd565b92915050565b60006020828403121561151d5761151c611344565b5b600061152b848285016113c8565b91505092915050565b60006020828403121561154a57611549611344565b5b600061155884828501611392565b91505092915050565b6000806040838503121561157857611577611344565b5b600061158685828601611392565b925050602061159785828601611392565b9150509250929050565b7f4e487b7100000000000000000000000000000000000000000000000000000000600052602260045260246000fd5b600060028204905060018216806115e857607f821691505b6020821081036115fb576115fa6115a1565b5b50919050565b7f45524332303a20617070726f766520746f207a65726f20616464726573730000600082015250565b6000611637601e8361129d565b915061164282611601565b602082019050919050565b600060208201905081810360008301526116668161162a565b9050919050565b7f45524332303a207472616e736665722066726f6d207a65726f2061646472657360008201527f7300000000000000000000000000000000000000000000000000000000000000602082015250565b60006116c960218361129d565b91506116d48261166d565b604082019050919050565b600060208201905081810360008301526116f8816116bc565b9050919050565b7f45524332303a207472616e7366657220746f207a65726f206164647265737300600082015250565b6000611735601f8361129d565b9150611740826116ff565b602082019050919050565b6000602082019050818103600083015261176481611728565b9050919050565b7f45524332303a20696e73756666696369656e742062616c616e63650000000000600082015250565b60006117a1601b8361129d565b91506117ac8261176b565b602082019050919050565b600060208201905081810360008301526117d081611794565b9050919050565b7f45524332303a20696e73756666696369656e7420616c6c6f77616e6365000000600082015250565b600061180d601d8361129d565b9150611818826117d7565b602082019050919050565b6000602082019050818103600083015261183c81611800565b9050919050565b7f45524332303a206d696e7420746f207a65726f20616464726573730000000000600082015250565b6000611879601b8361129d565b915061188482611843565b602082019050919050565b600060208201905081810360008301526118a88161186c565b9050919050565b7f45524332303a206275726e20616d6f756e7420657863656564732062616c616e60008201527f6365000000000000000000000000000000000000000000000000000000000000602082015250565b600061190b60228361129d565b9150611916826118af565b604082019050919050565b6000602082019050818103600083015261193a816118fe565b9050919050565b7f45524332303a2064656372656173656420616c6c6f77616e63652062656c6f7760008201527f207a65726f000000000000000000000000000000000000000000000000000000602082015250565b600061199d60258361129d565b91506119a882611941565b604082019050919050565b600060208201905081810360008301526119cc81611990565b905091905056fea26469706673582212201aa5ed4e70d0a63193dee79e03ee9c783dd2220886d8c4becdac7505a07ef5b064736f6c634300081c0033",
  "linkReferences": {},
  "deployedLinkReferences": {}
}