{
  "_format": "hh-sol-artifact-1",
  "contractName": "SchoolManagement",
  "sourceName": "contracts/schoolmanagement.sol",
  "abi": [
    {
      "inputs": [],
      "stateMutability": "nonpayable",
      "type": "constructor"
    },
    {
      "anonymous": false,
      "inputs": [
        {
          "indexed": false,
          "internalType": "address",
          "name": "student",
          "type": "address"
        },
        {
          "indexed": false,
          "internalType": "uint256",
          "name": "amount",
          "type": "uint256"
        }
      ],
      "name": "FeesPaid",
      "type": "event"
    },
    {
      "anonymous": false,
      "inputs": [
        {
          "indexed": false,
          "internalType": "address",
          "name": "staffAddress",
          "type": "address"
        }
      ],
      "name": "StaffHired",
      "type": "event"
    },
    {
      "anonymous": false,
      "inputs": [
        {
          "indexed": false,
          "internalType": "address",
          "name": "studentAddress",
          "type": "address"
        }
      ],
      "name": "StudentEnrolled",
      "type": "event"
    },
    {
      "inputs": [
        {
          "internalType": "address",
          "name": "_studentAddress",
          "type": "address"
        }
      ],
      "name": "enrollStudent",
      "outputs": [],
      "stateMutability": "nonpayable",
      "type": "function"
    },
    {
      "inputs": [],
      "name": "getBalance",
      "outputs": [
        {
          "internalType": "uint256",
          "name": "",
          "type": "uint256"
        }
      ],
      "stateMutability": "view",
      "type": "function"
    },
    {
      "inputs": [
        {
          "internalType": "address",
          "name": "_staffAddress",
          "type": "address"
        }
      ],
      "name": "hireStaff",
      "outputs": [],
      "stateMutability": "nonpayable",
      "type": "function"
    },
    {
      "inputs": [],
      "name": "payFees",
      "outputs": [],
      "stateMutability": "payable",
      "type": "function"
    },
    {
      "inputs": [],
      "name": "principal",
      "outputs": [
        {
          "internalType": "address",
          "name": "",
          "type": "address"
        }
      ],
      "stateMutability": "view",
      "type": "function"
    },
    {
      "inputs": [
        {
          "internalType": "address",
          "name": "",
          "type": "address"
        }
      ],
      "name": "staff",
      "outputs": [
        {
          "internalType": "bool",
          "name": "isEmployed",
          "type": "bool"
        }
      ],
      "stateMutability": "view",
      "type": "function"
    },
    {
      "inputs": [
        {
          "internalType": "address",
          "name": "",
          "type": "address"
        }
      ],
      "name": "students",
      "outputs": [
        {
          "internalType": "bool",
          "name": "isEnrolled",
          "type": "bool"
        },
        {
          "internalType": "uint256",
          "name": "feesPaid",
          "type": "uint256"
        }
      ],
      "stateMutability": "view",
      "type": "function"
    }
  ],
  "bytecode": "0x6080604052348015600f57600080fd5b50336000806101000a81548173ffffffffffffffffffffffffffffffffffffffff021916908373ffffffffffffffffffffffffffffffffffffffff1602179055506109ea8061005f6000396000f3fe6080604052600436106100705760003560e01c80634f83158a1161004e5780634f83158a146100f257806362779e151461012f578063a6c807a914610139578063ba5d30781461017757610070565b806312065fe0146100755780632a207eae146100a057806343ba9956146100c9575b600080fd5b34801561008157600080fd5b5061008a6101a2565b6040516100979190610633565b60405180910390f35b3480156100ac57600080fd5b506100c760048036038101906100c291906106b1565b6101aa565b005b3480156100d557600080fd5b506100f060048036038101906100eb91906106b1565b6102f8565b005b3480156100fe57600080fd5b50610119600480360381019061011491906106b1565b610434565b60405161012691906106f9565b60405180910390f35b61013761045f565b005b34801561014557600080fd5b50610160600480360381019061015b91906106b1565b6105c5565b60405161016e929190610714565b60405180910390f35b34801561018357600080fd5b5061018c6105f6565b604051610199919061074c565b60405180910390f35b600047905090565b600160003373ffffffffffffffffffffffffffffffffffffffff1673ffffffffffffffffffffffffffffffffffffffff16815260200190815260200160002060000160009054906101000a900460ff16610239576040517f08c379a0000000000000000000000000000000000000000000000000000000008152600401610230906107c4565b60405180910390fd5b60405180604001604052806001151581526020016000815250600260008373ffffffffffffffffffffffffffffffffffffffff1673ffffffffffffffffffffffffffffffffffffffff16815260200190815260200160002060008201518160000160006101000a81548160ff021916908315150217905550602082015181600101559050507fcf2a1c3c7a67eb28c4843f17631ff117d727317fc31e3e6b454c9b83dc789cec816040516102ed919061074c565b60405180910390a150565b60008054906101000a900473ffffffffffffffffffffffffffffffffffffffff1673ffffffffffffffffffffffffffffffffffffffff163373ffffffffffffffffffffffffffffffffffffffff1614610386576040517f08c379a000000000000000000000000000000000000000000000000000000000815260040161037d90610830565b60405180910390fd5b604051806020016040528060011515815250600160008373ffffffffffffffffffffffffffffffffffffffff1673ffffffffffffffffffffffffffffffffffffffff16815260200190815260200160002060008201518160000160006101000a81548160ff0219169083151502179055509050507f173fe7497a43c682866fa6261333cd706adcf48e29adfd40d87e1f717f57008e81604051610429919061074c565b60405180910390a150565b60016020528060005260406000206000915090508060000160009054906101000a900460ff16905081565b600260003373ffffffffffffffffffffffffffffffffffffffff1673ffffffffffffffffffffffffffffffffffffffff16815260200190815260200160002060000160009054906101000a900460ff166104ee576040517f08c379a00000000000000000000000000000000000000000000000000000000081526004016104e59061089c565b60405180910390fd5b60003411610531576040517f08c379a000000000000000000000000000000000000000000000000000000000815260040161052890610908565b60405180910390fd5b34600260003373ffffffffffffffffffffffffffffffffffffffff1673ffffffffffffffffffffffffffffffffffffffff16815260200190815260200160002060010160008282546105839190610957565b925050819055507f6a41f86b2a18fe00e10a9bd078e790ae82c2627a6f940166bddc2db475194a5f33346040516105bb92919061098b565b60405180910390a1565b60026020528060005260406000206000915090508060000160009054906101000a900460ff16908060010154905082565b60008054906101000a900473ffffffffffffffffffffffffffffffffffffffff1681565b6000819050919050565b61062d8161061a565b82525050565b60006020820190506106486000830184610624565b92915050565b600080fd5b600073ffffffffffffffffffffffffffffffffffffffff82169050919050565b600061067e82610653565b9050919050565b61068e81610673565b811461069957600080fd5b50565b6000813590506106ab81610685565b92915050565b6000602082840312156106c7576106c661064e565b5b60006106d58482850161069c565b91505092915050565b60008115159050919050565b6106f3816106de565b82525050565b600060208201905061070e60008301846106ea565b92915050565b600060408201905061072960008301856106ea565b6107366020830184610624565b9392505050565b61074681610673565b82525050565b6000602082019050610761600083018461073d565b92915050565b600082825260208201905092915050565b7f20416374696f6e206279207374616666204f6e6c792000000000000000000000600082015250565b60006107ae601683610767565b91506107b982610778565b602082019050919050565b600060208201905081810360008301526107dd816107a1565b9050919050565b7f4f6e6c79207072696e636970616c20616374696f6e0000000000000000000000600082015250565b600061081a601583610767565b9150610825826107e4565b602082019050919050565b600060208201905081810360008301526108498161080d565b9050919050565b7f596f7520617265206e6f7420656e726f6c6c6564000000000000000000000000600082015250565b6000610886601483610767565b915061089182610850565b602082019050919050565b600060208201905081810360008301526108b581610879565b9050919050565b7f4d7573742073656e642045544820746f20706179206665657300000000000000600082015250565b60006108f2601983610767565b91506108fd826108bc565b602082019050919050565b60006020820190508181036000830152610921816108e5565b9050919050565b7f4e487b7100000000000000000000000000000000000000000000000000000000600052601160045260246000fd5b60006109628261061a565b915061096d8361061a565b925082820190508082111561098557610984610928565b5b92915050565b60006040820190506109a0600083018561073d565b6109ad6020830184610624565b939250505056fea26469706673582212205c219b42fd44b104ec4eade0e3c1cda9935795f0274dfc0ab1ac03ac18fc123f64736f6c634300081c0033",
  "linkReferences": {},
  "deployedLinkReferences": {}
}