{
  "_format": "hh-sol-artifact-1",
  "contractName": "PiggyBank",
  "sourceName": "contracts/piggyBank.sol",
  "abi": [
    {
      "inputs": [
        {
          "internalType": "uint256",
          "name": "_targetAmount",
          "type": "uint256"
        },
        {
          "internalType": "uint256",
          "name": "_withdrawalDate",
          "type": "uint256"
        },
        {
          "internalType": "address",
          "name": "_manager",
          "type": "address"
        }
      ],
      "stateMutability": "nonpayable",
      "type": "constructor"
    },
    {
      "anonymous": false,
      "inputs": [
        {
          "indexed": true,
          "internalType": "address",
          "name": "Contributor",
          "type": "address"
        },
        {
          "indexed": false,
          "internalType": "uint256",
          "name": "amount",
          "type": "uint256"
        },
        {
          "indexed": false,
          "internalType": "uint256",
          "name": "time",
          "type": "uint256"
        }
      ],
      "name": "Contributed",
      "type": "event"
    },
    {
      "anonymous": false,
      "inputs": [
        {
          "indexed": false,
          "internalType": "uint256",
          "name": "amount",
          "type": "uint256"
        },
        {
          "indexed": false,
          "internalType": "uint256",
          "name": "time",
          "type": "uint256"
        }
      ],
      "name": "Withdrawn",
      "type": "event"
    },
    {
      "inputs": [
        {
          "internalType": "address",
          "name": "",
          "type": "address"
        }
      ],
      "name": "contributions",
      "outputs": [
        {
          "internalType": "uint256",
          "name": "",
          "type": "uint256"
        }
      ],
      "stateMutability": "view",
      "type": "function"
    },
    {
      "inputs": [],
      "name": "contributorsCount",
      "outputs": [
        {
          "internalType": "uint8",
          "name": "",
          "type": "uint8"
        }
      ],
      "stateMutability": "view",
      "type": "function"
    },
    {
      "inputs": [],
      "name": "manager",
      "outputs": [
        {
          "internalType": "address",
          "name": "",
          "type": "address"
        }
      ],
      "stateMutability": "view",
      "type": "function"
    },
    {
      "inputs": [],
      "name": "save",
      "outputs": [],
      "stateMutability": "payable",
      "type": "function"
    },
    {
      "inputs": [],
      "name": "targetAmount",
      "outputs": [
        {
          "internalType": "uint256",
          "name": "",
          "type": "uint256"
        }
      ],
      "stateMutability": "view",
      "type": "function"
    },
    {
      "inputs": [],
      "name": "withdrawal",
      "outputs": [],
      "stateMutability": "nonpayable",
      "type": "function"
    },
    {
      "inputs": [],
      "name": "withdrawalDate",
      "outputs": [
        {
          "internalType": "uint256",
          "name": "",
          "type": "uint256"
        }
      ],
      "stateMutability": "view",
      "type": "function"
    }
  ],
  "bytecode": "0x60a060405234801561001057600080fd5b50604051610d2b380380610d2b83398181016040528101906100329190610165565b428211610074576040517f08c379a000000000000000000000000000000000000000000000000000000000815260040161006b90610215565b60405180910390fd5b82600081905550816080818152505080600260016101000a81548173ffffffffffffffffffffffffffffffffffffffff021916908373ffffffffffffffffffffffffffffffffffffffff160217905550505050610235565b600080fd5b6000819050919050565b6100e4816100d1565b81146100ef57600080fd5b50565b600081519050610101816100db565b92915050565b600073ffffffffffffffffffffffffffffffffffffffff82169050919050565b600061013282610107565b9050919050565b61014281610127565b811461014d57600080fd5b50565b60008151905061015f81610139565b92915050565b60008060006060848603121561017e5761017d6100cc565b5b600061018c868287016100f2565b935050602061019d868287016100f2565b92505060406101ae86828701610150565b9150509250925092565b600082825260208201905092915050565b7f5749544844524157414c204d55535420424520494e2046555455524500000000600082015250565b60006101ff601c836101b8565b915061020a826101c9565b602082019050919050565b6000602082019050818103600083015261022e816101f2565b9050919050565b608051610acd61025e600039600081816101f00152818161040e01526104c80152610acd6000f3fe6080604052600436106100705760003560e01c80637569b3d71161004e5780637569b3d7146100e75780638261051f14610112578063953b8fb81461013d578063d4e932921461016857610070565b806342dad49e1461007557806342e94c901461007f578063481c6a75146100bc575b600080fd5b61007d61017f565b005b34801561008b57600080fd5b506100a660048036038101906100a1919061067b565b6103bb565b6040516100b391906106c1565b60405180910390f35b3480156100c857600080fd5b506100d16103d3565b6040516100de91906106eb565b60405180910390f35b3480156100f357600080fd5b506100fc6103f9565b6040516101099190610722565b60405180910390f35b34801561011e57600080fd5b5061012761040c565b60405161013491906106c1565b60405180910390f35b34801561014957600080fd5b50610152610430565b60405161015f91906106c1565b60405180910390f35b34801561017457600080fd5b5061017d610436565b005b600073ffffffffffffffffffffffffffffffffffffffff163373ffffffffffffffffffffffffffffffffffffffff16036101ee576040517f08c379a00000000000000000000000000000000000000000000000000000000081526004016101e59061079a565b60405180910390fd5b7f0000000000000000000000000000000000000000000000000000000000000000421115610251576040517f08c379a000000000000000000000000000000000000000000000000000000000815260040161024890610806565b60405180910390fd5b60003411610294576040517f08c379a000000000000000000000000000000000000000000000000000000000815260040161028b90610872565b60405180910390fd5b6000600160003373ffffffffffffffffffffffffffffffffffffffff1673ffffffffffffffffffffffffffffffffffffffff1681526020019081526020016000205403610313576001600260008282829054906101000a900460ff166102fa91906108c1565b92506101000a81548160ff021916908360ff1602179055505b34600160003373ffffffffffffffffffffffffffffffffffffffff1673ffffffffffffffffffffffffffffffffffffffff168152602001908152602001600020600082825461036291906108f6565b925050819055503373ffffffffffffffffffffffffffffffffffffffff167ffa35a310d7113dddce1c275da946348e9aaebf9050b00b372033c4d84b0bd6eb34426040516103b192919061092a565b60405180910390a2565b60016020528060005260406000206000915090505481565b600260019054906101000a900473ffffffffffffffffffffffffffffffffffffffff1681565b600260009054906101000a900460ff1681565b7f000000000000000000000000000000000000000000000000000000000000000081565b60005481565b600260019054906101000a900473ffffffffffffffffffffffffffffffffffffffff1673ffffffffffffffffffffffffffffffffffffffff163373ffffffffffffffffffffffffffffffffffffffff16146104c6576040517f08c379a00000000000000000000000000000000000000000000000000000000081526004016104bd9061099f565b60405180910390fd5b7f0000000000000000000000000000000000000000000000000000000000000000421015610529576040517f08c379a000000000000000000000000000000000000000000000000000000000815260040161052090610a0b565b60405180910390fd5b60005447101561056e576040517f08c379a000000000000000000000000000000000000000000000000000000000815260040161056590610a77565b60405180910390fd5b6000479050600260019054906101000a900473ffffffffffffffffffffffffffffffffffffffff1673ffffffffffffffffffffffffffffffffffffffff166108fc829081150290604051600060405180830381858888f193505050501580156105db573d6000803e3d6000fd5b507f0c875c8d391179c5cf7ad8303d268efd50b8beb78b671f85cd54bfb91eb8ef40814260405161060d92919061092a565b60405180910390a150565b600080fd5b600073ffffffffffffffffffffffffffffffffffffffff82169050919050565b60006106488261061d565b9050919050565b6106588161063d565b811461066357600080fd5b50565b6000813590506106758161064f565b92915050565b60006020828403121561069157610690610618565b5b600061069f84828501610666565b91505092915050565b6000819050919050565b6106bb816106a8565b82525050565b60006020820190506106d660008301846106b2565b92915050565b6106e58161063d565b82525050565b600060208201905061070060008301846106dc565b92915050565b600060ff82169050919050565b61071c81610706565b82525050565b60006020820190506107376000830184610713565b92915050565b600082825260208201905092915050565b7f554e415554484f52495a45442041444452455353000000000000000000000000600082015250565b600061078460148361073d565b915061078f8261074e565b602082019050919050565b600060208201905081810360008301526107b381610777565b9050919050565b7f594f552043414e204e4f204c4f4e474552205341564500000000000000000000600082015250565b60006107f060168361073d565b91506107fb826107ba565b602082019050919050565b6000602082019050818103600083015261081f816107e3565b9050919050565b7f594f55204152452042524f4b4500000000000000000000000000000000000000600082015250565b600061085c600d8361073d565b915061086782610826565b602082019050919050565b6000602082019050818103600083015261088b8161084f565b9050919050565b7f4e487b7100000000000000000000000000000000000000000000000000000000600052601160045260246000fd5b60006108cc82610706565b91506108d783610706565b9250828201905060ff8111156108f0576108ef610892565b5b92915050565b6000610901826106a8565b915061090c836106a8565b925082820190508082111561092457610923610892565b5b92915050565b600060408201905061093f60008301856106b2565b61094c60208301846106b2565b9392505050565b7f594f552057414e20544849454620414249203f00000000000000000000000000600082015250565b600061098960138361073d565b915061099482610953565b602082019050919050565b600060208201905081810360008301526109b88161097c565b9050919050565b7f4e4f54205945542054494d450000000000000000000000000000000000000000600082015250565b60006109f5600c8361073d565b9150610a00826109bf565b602082019050919050565b60006020820190508181036000830152610a24816109e8565b9050919050565b7f54415247455420414d4f554e54204e4f54205245414348454400000000000000600082015250565b6000610a6160198361073d565b9150610a6c82610a2b565b602082019050919050565b60006020820190508181036000830152610a9081610a54565b905091905056fea264697066735822122029e55bfaec32ab8cec78c9c36ff6733405777523fb583f618f9e7e2b4c52b65764736f6c634300081c0033",
  "linkReferences": {},
  "deployedLinkReferences": {}
}