{
  "_format": "hh-sol-artifact-1",
  "contractName": "OurPiggyBank",
  "sourceName": "contracts/piggyBank.sol",
  "abi": [
    {
      "inputs": [
        {
          "internalType": "uint256",
          "name": "_targetAmount",
          "type": "uint256"
        },
        {
          "internalType": "uint256",
          "name": "_withdrawalDate",
          "type": "uint256"
        },
        {
          "internalType": "address",
          "name": "_manager",
          "type": "address"
        },
        {
          "internalType": "address",
          "name": "tokenAddress",
          "type": "address"
        }
      ],
      "stateMutability": "nonpayable",
      "type": "constructor"
    },
    {
      "anonymous": false,
      "inputs": [
        {
          "indexed": true,
          "internalType": "address",
          "name": "Contributor",
          "type": "address"
        },
        {
          "indexed": false,
          "internalType": "uint256",
          "name": "amount",
          "type": "uint256"
        },
        {
          "indexed": false,
          "internalType": "uint256",
          "name": "time",
          "type": "uint256"
        }
      ],
      "name": "Contributed",
      "type": "event"
    },
    {
      "anonymous": false,
      "inputs": [
        {
          "indexed": false,
          "internalType": "uint256",
          "name": "amount",
          "type": "uint256"
        },
        {
          "indexed": false,
          "internalType": "uint256",
          "name": "time",
          "type": "uint256"
        }
      ],
      "name": "Withdrawn",
      "type": "event"
    },
    {
      "inputs": [
        {
          "internalType": "address",
          "name": "",
          "type": "address"
        }
      ],
      "name": "contributions",
      "outputs": [
        {
          "internalType": "uint256",
          "name": "",
          "type": "uint256"
        }
      ],
      "stateMutability": "view",
      "type": "function"
    },
    {
      "inputs": [],
      "name": "contributorsCount",
      "outputs": [
        {
          "internalType": "uint8",
          "name": "",
          "type": "uint8"
        }
      ],
      "stateMutability": "view",
      "type": "function"
    },
    {
      "inputs": [],
      "name": "manager",
      "outputs": [
        {
          "internalType": "address",
          "name": "",
          "type": "address"
        }
      ],
      "stateMutability": "view",
      "type": "function"
    },
    {
      "inputs": [
        {
          "internalType": "uint256",
          "name": "_amount",
          "type": "uint256"
        }
      ],
      "name": "save",
      "outputs": [],
      "stateMutability": "nonpayable",
      "type": "function"
    },
    {
      "inputs": [],
      "name": "targetAmount",
      "outputs": [
        {
          "internalType": "uint256",
          "name": "",
          "type": "uint256"
        }
      ],
      "stateMutability": "view",
      "type": "function"
    },
    {
      "inputs": [],
      "name": "withdrawal",
      "outputs": [],
      "stateMutability": "nonpayable",
      "type": "function"
    },
    {
      "inputs": [],
      "name": "withdrawalDate",
      "outputs": [
        {
          "internalType": "uint256",
          "name": "",
          "type": "uint256"
        }
      ],
      "stateMutability": "view",
      "type": "function"
    }
  ],
  "bytecode": "0x60a060405234801561001057600080fd5b50604051611299380380611299833981810160405281019061003291906101a7565b428311610074576040517f08c379a000000000000000000000000000000000000000000000000000000000815260040161006b9061026b565b60405180910390fd5b83600081905550826080818152505081600260016101000a81548173ffffffffffffffffffffffffffffffffffffffff021916908373ffffffffffffffffffffffffffffffffffffffff16021790555080600360006101000a81548173ffffffffffffffffffffffffffffffffffffffff021916908373ffffffffffffffffffffffffffffffffffffffff1602179055505050505061028b565b600080fd5b6000819050919050565b61012681610113565b811461013157600080fd5b50565b6000815190506101438161011d565b92915050565b600073ffffffffffffffffffffffffffffffffffffffff82169050919050565b600061017482610149565b9050919050565b61018481610169565b811461018f57600080fd5b50565b6000815190506101a18161017b565b92915050565b600080600080608085870312156101c1576101c061010e565b5b60006101cf87828801610134565b94505060206101e087828801610134565b93505060406101f187828801610192565b925050606061020287828801610192565b91505092959194509250565b600082825260208201905092915050565b7f5749544844524157414c204d55535420424520494e2046555455524500000000600082015250565b6000610255601c8361020e565b91506102608261021f565b602082019050919050565b6000602082019050818103600083015261028481610248565b9050919050565b608051610fe56102b4600039600081816101c10152818161062101526106db0152610fe56000f3fe608060405234801561001057600080fd5b506004361061007d5760003560e01c80637569b3d71161005b5780637569b3d7146100ec5780638261051f1461010a578063953b8fb814610128578063d4e93292146101465761007d565b80631b8620271461008257806342e94c901461009e578063481c6a75146100ce575b600080fd5b61009c6004803603810190610097919061099f565b610150565b005b6100b860048036038101906100b39190610a2a565b6105ce565b6040516100c59190610a66565b60405180910390f35b6100d66105e6565b6040516100e39190610a90565b60405180910390f35b6100f461060c565b6040516101019190610ac7565b60405180910390f35b61011261061f565b60405161011f9190610a66565b60405180910390f35b610130610643565b60405161013d9190610a66565b60405180910390f35b61014e610649565b005b600073ffffffffffffffffffffffffffffffffffffffff163373ffffffffffffffffffffffffffffffffffffffff16036101bf576040517f08c379a00000000000000000000000000000000000000000000000000000000081526004016101b690610b3f565b60405180910390fd5b7f0000000000000000000000000000000000000000000000000000000000000000421115610222576040517f08c379a000000000000000000000000000000000000000000000000000000000815260040161021990610bab565b60405180910390fd5b60008111610265576040517f08c379a000000000000000000000000000000000000000000000000000000000815260040161025c90610c17565b60405180910390fd5b6000600360009054906101000a900473ffffffffffffffffffffffffffffffffffffffff1673ffffffffffffffffffffffffffffffffffffffff166323b872dd3330856040518463ffffffff1660e01b81526004016102c693929190610c37565b6020604051808303816000875af11580156102e5573d6000803e3d6000fd5b505050506040513d601f19601f820116820180604052508101906103099190610ca6565b90508061034b576040517f08c379a000000000000000000000000000000000000000000000000000000000815260040161034290610d1f565b60405180910390fd5b6000600160003373ffffffffffffffffffffffffffffffffffffffff1673ffffffffffffffffffffffffffffffffffffffff16815260200190815260200160002054036103ca576001600260008282829054906101000a900460ff166103b19190610d6e565b92506101000a81548160ff021916908360ff1602179055505b6002600460003373ffffffffffffffffffffffffffffffffffffffff1673ffffffffffffffffffffffffffffffffffffffff168152602001908152602001600020541015801561046a575060001515600560003373ffffffffffffffffffffffffffffffffffffffff1673ffffffffffffffffffffffffffffffffffffffff16815260200190815260200160002060009054906101000a900460ff161515145b156104cc576001600560003373ffffffffffffffffffffffffffffffffffffffff1673ffffffffffffffffffffffffffffffffffffffff16815260200190815260200160002060006101000a81548160ff021916908315150217905550610524565b6001600460003373ffffffffffffffffffffffffffffffffffffffff1673ffffffffffffffffffffffffffffffffffffffff168152602001908152602001600020600082825461051c9190610da3565b925050819055505b81600160003373ffffffffffffffffffffffffffffffffffffffff1673ffffffffffffffffffffffffffffffffffffffff16815260200190815260200160002060008282546105739190610da3565b925050819055503373ffffffffffffffffffffffffffffffffffffffff167ffa35a310d7113dddce1c275da946348e9aaebf9050b00b372033c4d84b0bd6eb83426040516105c2929190610dd7565b60405180910390a25050565b60016020528060005260406000206000915090505481565b600260019054906101000a900473ffffffffffffffffffffffffffffffffffffffff1681565b600260009054906101000a900460ff1681565b7f000000000000000000000000000000000000000000000000000000000000000081565b60005481565b600260019054906101000a900473ffffffffffffffffffffffffffffffffffffffff1673ffffffffffffffffffffffffffffffffffffffff163373ffffffffffffffffffffffffffffffffffffffff16146106d9576040517f08c379a00000000000000000000000000000000000000000000000000000000081526004016106d090610e4c565b60405180910390fd5b7f000000000000000000000000000000000000000000000000000000000000000042101561073c576040517f08c379a000000000000000000000000000000000000000000000000000000000815260040161073390610eb8565b60405180910390fd5b6000600360009054906101000a900473ffffffffffffffffffffffffffffffffffffffff1673ffffffffffffffffffffffffffffffffffffffff166370a08231306040518263ffffffff1660e01b81526004016107999190610a90565b602060405180830381865afa1580156107b6573d6000803e3d6000fd5b505050506040513d601f19601f820116820180604052508101906107da9190610eed565b9050600054811015610821576040517f08c379a000000000000000000000000000000000000000000000000000000000815260040161081890610f66565b60405180910390fd5b6000600360009054906101000a900473ffffffffffffffffffffffffffffffffffffffff1673ffffffffffffffffffffffffffffffffffffffff1663a9059cbb600260019054906101000a900473ffffffffffffffffffffffffffffffffffffffff16846040518363ffffffff1660e01b81526004016108a2929190610f86565b6020604051808303816000875af11580156108c1573d6000803e3d6000fd5b505050506040513d601f19601f820116820180604052508101906108e59190610ca6565b905080610927576040517f08c379a000000000000000000000000000000000000000000000000000000000815260040161091e90610d1f565b60405180910390fd5b7f0c875c8d391179c5cf7ad8303d268efd50b8beb78b671f85cd54bfb91eb8ef408242604051610958929190610dd7565b60405180910390a15050565b600080fd5b6000819050919050565b61097c81610969565b811461098757600080fd5b50565b60008135905061099981610973565b92915050565b6000602082840312156109b5576109b4610964565b5b60006109c38482850161098a565b91505092915050565b600073ffffffffffffffffffffffffffffffffffffffff82169050919050565b60006109f7826109cc565b9050919050565b610a07816109ec565b8114610a1257600080fd5b50565b600081359050610a24816109fe565b92915050565b600060208284031215610a4057610a3f610964565b5b6000610a4e84828501610a15565b91505092915050565b610a6081610969565b82525050565b6000602082019050610a7b6000830184610a57565b92915050565b610a8a816109ec565b82525050565b6000602082019050610aa56000830184610a81565b92915050565b600060ff82169050919050565b610ac181610aab565b82525050565b6000602082019050610adc6000830184610ab8565b92915050565b600082825260208201905092915050565b7f554e415554484f52495a45442041444452455353000000000000000000000000600082015250565b6000610b29601483610ae2565b9150610b3482610af3565b602082019050919050565b60006020820190508181036000830152610b5881610b1c565b9050919050565b7f594f552043414e204e4f204c4f4e474552205341564500000000000000000000600082015250565b6000610b95601683610ae2565b9150610ba082610b5f565b602082019050919050565b60006020820190508181036000830152610bc481610b88565b9050919050565b7f594f55204152452042524f4b4500000000000000000000000000000000000000600082015250565b6000610c01600d83610ae2565b9150610c0c82610bcb565b602082019050919050565b60006020820190508181036000830152610c3081610bf4565b9050919050565b6000606082019050610c4c6000830186610a81565b610c596020830185610a81565b610c666040830184610a57565b949350505050565b60008115159050919050565b610c8381610c6e565b8114610c8e57600080fd5b50565b600081519050610ca081610c7a565b92915050565b600060208284031215610cbc57610cbb610964565b5b6000610cca84828501610c91565b91505092915050565b7f5472616e73616374696f6e204661696c65640000000000000000000000000000600082015250565b6000610d09601283610ae2565b9150610d1482610cd3565b602082019050919050565b60006020820190508181036000830152610d3881610cfc565b9050919050565b7f4e487b7100000000000000000000000000000000000000000000000000000000600052601160045260246000fd5b6000610d7982610aab565b9150610d8483610aab565b9250828201905060ff811115610d9d57610d9c610d3f565b5b92915050565b6000610dae82610969565b9150610db983610969565b9250828201905080821115610dd157610dd0610d3f565b5b92915050565b6000604082019050610dec6000830185610a57565b610df96020830184610a57565b9392505050565b7f594f552057414e20544849454620414249203f00000000000000000000000000600082015250565b6000610e36601383610ae2565b9150610e4182610e00565b602082019050919050565b60006020820190508181036000830152610e6581610e29565b9050919050565b7f4e4f54205945542054494d450000000000000000000000000000000000000000600082015250565b6000610ea2600c83610ae2565b9150610ead82610e6c565b602082019050919050565b60006020820190508181036000830152610ed181610e95565b9050919050565b600081519050610ee781610973565b92915050565b600060208284031215610f0357610f02610964565b5b6000610f1184828501610ed8565b91505092915050565b7f54415247455420414d4f554e54204e4f54205245414348454400000000000000600082015250565b6000610f50601983610ae2565b9150610f5b82610f1a565b602082019050919050565b60006020820190508181036000830152610f7f81610f43565b9050919050565b6000604082019050610f9b6000830185610a81565b610fa86020830184610a57565b939250505056fea2646970667358221220f5079deb7ebe7fdeae9d06830169cda7f09602c86b5abe8a7d70bdac2e97a33e64736f6c634300081c0033",
  "linkReferences": {},
  "deployedLinkReferences": {}
}